:040000008031202803
:100008007E1480314E01941C0A280B281E280130CA
:10001800F00070084101AE00031040011A1E0314DD
:10002800031817281A2840011A161C2840011A120A
:100038004E0194107E100900803122284001ED0104
:10004800EE01A0308400003085002F309531632503
:1000580080317E1040018A31202A400129088039E8
:10006800AE002E08B3002935AE002E08B900A81F2F
:100078003E283F28402839143908031944284528C0
:100088005428390A031D49284A2852280030A90053
:100098000030A8000030A7000030A600A8175C2890
:1000A8000030A9000030A8000030A7000030A600EA
:1000B8002D088039AE002E08B3062D35AE002E0867
:1000C800B800AC1F682869286A283814380803194A
:1000D8006E286F287E28380A031D732874287C2808
:1000E8000030AD000030AC000030AB000030AA009A
:1000F800AC1786280030AD000030AC000030AB00F3
:100108000030AA00380803198A288B289028390853
:10011800031D8F28902899280030A9000030A800D6
:100128000030A7000030A600872A2608AE002E0857
:10013800F1002C0896311C26803172084001BF005E
:100148007108BE003E08AE00AF01B001B101310830
:10015800B7003008B6002F08B5002E08B4003F08D5
:10016800AE00AF01B001B1013108BD003008BC00DC
:100178002F08BB002E08BA002708AE002E08F10091
:100188002B0896311C26803172084001BF00710887
:10019800BE003E08AE00AF01B001B1012E08B407A1
:1001A8002F08B53D3008B63D3108B73D3F08AE00D1
:1001B800AF01B001B1012E08BA072F08BB3D3008C6
:1001C800BC3D3108BD3D2808AE002E08F1002A08C4
:1001D80096311C26803172084001BF007108BE00AC
:1001E8003E08AE00AF01B001B1012E08B4072F08D8
:1001F800B53D3008B63D3108B73D3F08AE00AF0108
:10020800B001B1012E08BA072F08BB3D3008BC3D2C
:100218003108BD3D0830B435B50DB60DB70D890BA5
:100228000F292708AE002E08F1002A0896311C264F
:10023800803172084001BF007108BE003E08B40753
:100248003F08B53D0030B63DB73D2608AE002E0844
:10025800F1002B0896311C26803172084001BF003E
:100268007108BE003E08B4073F08B53D0030B63DF2
:10027800B73D0830B435B50DB60DB70D890B3E291D
:100288002608AE002E08F1002A0896311C26803177
:1002980072084001BF007108BE003E08B4073F085D
:1002A800B53D0030B63DB73D2708AE002E08F10039
:1002B8002C0896311C26803172084001BF00710855
:1002C800BE003E08BA073F08BB3D0030BC3DBD3DFF
:1002D8002808AE002E08F1002B0896311C26803124
:1002E80072084001BF007108BE003E08BA073F0807
:1002F800BB3D0030BC3DBD3D2808AE002E08F100D6
:100308002C0896311C26803172084001BF00710804
:10031800BE003E08AE003F08AF00B001B101083092
:10032800AE35AF0DB00DB10D890B94292E08BA0763
:100338002F08BB3D3008BC3D3108BD3D3408AE0038
:100348003508AF003608B0003708B1001830B136AC
:10035800B00CAF0CAE0C890BAB292E08BA072F08CE
:10036800BB3D3008BC3D3108BD3D0830B435B50D46
:10037800B60DB70D890BBA2939083807AE00AF0199
:10038800AF0D2E08823EBE00FF302F3DBF00E3298F
:100398000130BA35BB0DBC0DBD0D890BCD29B71F7A
:1003A800D629D729D8293A140130B435B50DB60D58
:1003B800B70D890BD929FF30BE07FF30BF3DBC1FE1
:1003C800E629E729CC29B801B71FEB29EC29082A27
:1003D800FF303405AE00FF303505AF00FF3036057D
:1003E800B0007F303705B100310830042F042E04E7
:1003F8000319FF29002A032AB801B80A082A3A1C57
:10040800062A072A082A002A380803190C2A0D2A5E
:10041800352A0130BA070030BB3D0030BC3D003002
:10042800BD3D3D1C182A192A352A3A08AE003B085A
:10043800AF003C08B0003D08B1000130B200B13750
:10044800B00CAF0CAE0CB20B232A3108BD0030083B
:10045800BC002F08BB002E08BA000130BE070030D0
:10046800BF3D3F08803AAE0080302E02031D3E2A71
:10047800FF303E02031C412A422A4C2A7F304001A9
:10048800BD008030BC000030BB000030BA007B2AC1
:1004980040013F08803AAE0080302E02031D562AE4
:1004A80001303E020318592A5A2A652A00304001B1
:1004B800BD000030BC000030BB000030BA00B30102
:1004C8007B2A40013E08AE002E08B900FF30BA056D
:1004D800FF30BB057F30BC050030BD05391C752ACF
:1004E800762A772ABC173936AE002E08BD003308A5
:1004F800AE002E08BD043D08A9003C08A8003B0832
:10050800A7003A08A6000800740880394001A00036
:100518002008F9007435A0002008FB00F31F952A75
:10052800962A972A7B147B0803199B2A9C2AAC2AB3
:100538007B0A031DA02AA12AA92A0030F400003052
:10054800F3000030F2000030F100F317F401B42A90
:100558000030F4000030F3000030F2000030F10009
:1005680078088039A0002008FA007A08790603196B
:10057800BE2ABF2AC02A79177835A0002008FA00B9
:10058800F71FC72AC82AC92A7A147A080319CD2A54
:10059800CE2ADE2A7A0A031DD22AD32ADB2A003081
:1005A800F8000030F7000030F6000030F500F717CB
:1005B800F801E62A0030F8000030F7000030F600B5
:1005C8000030F5007B087A020318EB2AEC2A302B5E
:1005D800791FEF2AF02AF42A8030A0002008F906B3
:1005E8007B08A0002008FC007A08A0002008FB0077
:1005F8007C08A0002008FA007108A0002008FC0070
:100608007508A0002008F1007C08A0002008F5006B
:100618007208A0002008FC007608A0002008F2005C
:100628007C08A0002008F6007308A0002008FC0041
:100638007708A0002008F3007C08A0002008F70035
:100648007408A0002008FC007808A0002008F40026
:100658007C08A0002008F800FC017A08A000A1018D
:100668002108A3007B082002A200031CA30323087F
:10067800803AA40080302402031D442B1A30220241
:10068800031C472B482B822B7408730472047104D3
:10069800031D4F2B512B0130522B00304001A0007D
:1006A8002008FC000030F4000030F3000030F200B5
:1006B8000030F1007A08A0002008FB00882B7C1C81
:1006C800662B672B6E2B7C3601384001A000200872
:1006D800FC00702B0310FC0C711C732B742B752BF6
:1006E800FC1701304001A000F437F30CF20CF10CB8
:1006F800A00B782B0130A0002008FB077A087B02AA
:10070800031C872B882B632B791B8B2B8C2BC62BDD
:100718007B08031D902B912B9A2B0030F40000309E
:10072800F3000030F2000030F100C62C7508F10724
:100738007608F23D7708F33D7808F43D741CA52B44
:10074800A62B532C7C1CA92BAA2BB12B7C36013849
:100758004001A0002008FC00B32B0310FC0C711C06
:10076800B62BB72BB82BFC1701304001A000F4378B
:10077800F30CF20CF10CA00BBB2B0130A0002008ED
:10078800FB07532C7408803A4001A0007808803A8F
:100798002002031DD92B77087302031DD92B760875
:1007A8007202031DD92B750871020318DC2BDD2B8F
:1007B800152CFF30A000FF30A100FF30A200FF3051
:1007C800A30071087502A4007208763BA50073089F
:1007D800773BA6007408783BA7002408A0072508E3
:1007E800A13D2608A23D2708A33D2308F4002208BE
:1007F800F3002108F2002008F1008030A000200852
:10080800F906FC09FC0A7C08031D0B2C0C2C1D2C7A
:100818000130F1070030F23D0030F33D0030F43D87
:100828001D2C7508F1027608F23B7708F33B78082F
:10083800F43B7408730472047104031D242C252CE2
:100848004F2C7C08031D292C2A2C4F2C0030F40037
:100858000030F3000030F2000030F100C62C013007
:10086800F135F20DF30DF40D890B342CFC1F3D2CE2
:100878003E2C3F2C71147C1C422C432C462C031418
:10088800FC0D482C0310FC0D7B0803194C2C4D2C37
:100898004F2C0130FB02F31F522C532C332CFA013E
:1008A800FC1F572C582C662C7C087F3903195D2CAB
:1008B8005E2C612CFA01FA0A662C711C642C652CDA
:1008C800662C5E2C7A0803196A2C6B2C992C013043
:1008D800F1070030F23D0030F33D0030F43D741C68
:1008E800762C772C992C71084001A0007208A10081
:1008F8007308A2007408A3000130A400A337A20C57
:10090800A10CA00CA40B822C2308F4002208F300ED
:100918002108F2002008F1007B0A0319942C952C79
:10092800992C0130A0002008FB077B0A03199D2C95
:100938009E2CA32C7B08031DA22CA32CB12C0030C9
:10094800F4000030F3000030F2000030F1007B08C2
:10095800031DAF2CB02CB12CF9017B1CB42CB52C89
:10096800B72CF317BC2C7F304001A0002008F305FA
:100978007B364001A0002008F400F91FC42CC52CC8
:10098800C62CF4170800410123084001D500410195
:1009980022084001D400410121084001D30041014F
:1009A80020084001D2004308D5004208D40041087D
:1009B800D3004008D2005208C4005308C5005408A8
:1009C800C6005508C7001730C736C60CC50CC40C7E
:1009D800890BE82CFF304405CC0000304505CD00DC
:1009E8004D08803AC40080304402031DFD2C963027
:1009F8004C02031C002D012D022DA12E400152088E
:100A0800C4005308C5005408C6005508C7001F3065
:100A1800C736C60CC50CC40C890B0C2D47084604F8
:100A2800450444040319192D1A2D2E2D4308F400EA
:100A38004208F3004108F2004008F10095317225A0
:100A4800843174084001C3007308C2007208C100F1
:100A58007108C0004D08803AC40080304402031D6C
:100A6800372D7E304C0203183A2D3B2D592D00307E
:100A78004001A9000030A8000030A7000030A600FF
:100A88005508AD005408AC005308AB005208AA0042
:100A980080313120843140012908C3002808C20070
:100AA8002708C1002608C000A12E4B30F4000030F2
:100AB800F3000030F2000030F10040014308F80074
:100AC8004208F7004108F6004008F5008231882204
:100AD800843174084001D1007308D0007208CF0037
:100AE8007108CE00CB30F4000030F3000030F20083
:100AF8000030F1005108F8005008F7004F08F600E0
:100B08004E08F50082318822843174084001CB00F8
:100B18007308CA007208C9007108C8004308AB000E
:100B28004208AA004108A9004008A8004B08AF00E5
:100B38004A08AE004908AD004808AC009531DA25EE
:100B4800843140012B08D9002A08D8002908D70089
:100B58002808D6003F30F4000030F3000030F200DF
:100B68000030F1005908F8005808F7005708F60057
:100B78005608F5008831312084310318C42DC52D5D
:100B8800FF2D40014308F4004208F3004108F20039
:100B98004008F1005908F8005808F7005708F6000F
:100BA8005608F50082318822843174084001D1004A
:100BB8007308D0007208CF007108CE00BF30F4006F
:100BC8008030F3000030F2000030F1005108F800E6
:100BD8005008F7004F08F6004E08F50082318822C9
:100BE800843174084001D9007308D8007208D7000E
:100BF8007108D6006E2EBF30F4000030F3000030CC
:100C0800F2000030F10040015908F8005808F700D8
:100C18005708F6005608F500883131208431031C46
:100C2800162E172E512E40014308F4004208F300F7
:100C38004108F2004008F1005908F8005808F70088
:100C48005708F6005608F500823188228431740866
:100C58004001D1007308D0007208CF007108CE009F
:100C68003F30F4008030F3000030F2000030F10033
:100C78005108F8005008F7004F08F6004E08F50034
:100C880082318822843174084001D9007308D80061
:100C98007208D7007108D6006E2E40014308F40090
:100CA8004208F3004108F2004008F1005908F80032
:100CB8005808F7005708F6005608F50082318822D0
:100CC800843174084001D9007308D8007208D7002D
:100CD8007108D6005208C4005308C5005408C6005D
:100CE8005508C7001F30C736C60CC50CC40C890B85
:100CF800772E47084604450444040319842E852E9C
:100D0800992E5908F4005808F3005708F2005608BD
:100D1800F10095317225843174084001D9007308B7
:100D2800D8007208D7007108D6005908C3005808BF
:100D3800C2005708C1005608C00008004001DD0085
:100D48004E0886008701403FD000413FD10050083F
:100D58008400510885001200253A031DB42EB52ED3
:100D6800CF2F4E08860087010130810741310318D3
:100D7800810A4101AA01AB014001ED01EE01FF30FA
:100D88004101AC00FF30AD0040014E0886008701EC
:100D9800403FD000413FD1005008840051088500F1
:100DA8001200643A0319D92EDA2EEB2E4E0886006B
:100DB8008701403FD000413FD100500884005108CE
:100DC80085001200693A031DEA2EEB2E262F4E08E5
:100DD800860087010130810741310318810A4F08D5
:100DE8008600870101088400850102308107003FE1
:100DF800D000013FD1005008D5005108D600890D18
:100E0800893B8909D700D800D900DA00DB00DC006B
:100E18005508B0005608B1005708B2005808B3008A
:100E28005908B4005A08B5005B08B6005C08B7005A
:100E38005D088C31E224863140013108CF0030084A
:100E4800CE00F22F4E0886008701403FF100413F57
:100E5800F2000930F3009830F4000230F500003059
:100E6800F60097312F2786317108720403193D2F38
:100E78003E2F572F40014E0886008701403FF10062
:100E8800413FF2000C30F3009830F4000230F500D6
:100E98000030F60097312F27863171087204031D40
:100EA800562F572F992F40014E0886008701023090
:100EB800810741310318810A4F088600870101081C
:100EC8008400850104308107003FD000013FD10034
:100ED800023FD200033FD3005008D5005108D60086
:100EE8005208D7005308D8000030D81BFF30D9006B
:100EF800DA00DB00DC005508B0005608B1005708DE
:100F0800B2005808B3005908B4005A08B5005B0885
:100F1800B6005C08B7005D088C31E22486314001D8
:100F28003108CF003008CE00F22F40014E0886006D
:100F38008701403FD000413FD1005008840051084C
:100F480085001200253A031DAA2FAB2FC42F4E0887
:100F5800860087010130810741310318810A253055
:100F6800F2000030F3005D08D0005008F40096311C
:100F78009A26863101304001CE000030CF00F22F92
:100F88004E08860087010130810741310318810A24
:100F9800CE01CF01F22F4E0886008701403FD000D6
:100FA800413FD10050088400510885000008D20054
:100FB800D3015208F2005308F3005D08D400540826
:100FC800F40096319A26863140014E088600870142
:100FD8000130810741310318810ABE2F0800420100
:100FE8009E161E159D179F159C01CF309B000F3034
:060FF8007E01A7000800C5
:101000004001E3005F08E5005E08E4004101A8013B
:10101000A9011E286430E1006108CE006008E200EA
:101020006208CF0063088631A226883140014E084D
:101030004101A80740014F084101A93D4001640852
:101040008400650885001200031D272828280A2827
:10105000410129084001DF00410128084001DE006C
:10106000080000307105F90000307205FA00803088
:101070007305FB007F307405FC007C087B047A0458
:101080007904031D442845284D280030F400003021
:10109000F3000030F2000030F10000307505F90077
:1010A00000307605FA0080307705FB007F30780548
:1010B000FC007C087B047A047904031D6028612805
:1010C00069280030F8000030F7000030F6000030EA
:1010D000F500F41F6C286D2885280030F9000030D9
:1010E000FA000030FB008030FC007108F902720841
:1010F000FA3B7308FB3B7408FC3B7C08F4007B085C
:10110000F3007A08F2007908F100F81F882889288E
:10111000A1280030F9000030FA000030FB008030D8
:10112000FC007508F9027608FA3B7708FB3B780863
:10113000FC3B7C08F8007B08F7007A08F600790889
:10114000F5008030F4068030F80678087402031D3C
:10115000B32877087302031DB32876087202031DB3
:10116000B328750871020318B628B728B9280310E8
:10117000BA28031408004001A00020080319C12860
:10118000C228D628F41FC528C628D6287109A2006F
:101190007209A3007309A4007409A500A20A031927
:1011A000A30A0319A40A0319A50ADE287408A500D6
:1011B0007308A4007208A3007108A20074087304E5
:1011C00072047104031DE528E628EF280030F400BE
:1011D0000030F3000030F2000030F1006729963053
:1011E000F5007508A100FF280130F5007508A1077A
:1011F0000130A536A40CA30CA20C890BF928FE30F3
:101200002505031D04290529F42819290130F500B5
:101210007508A1070130A2070030A33D0030A43DAE
:101220000030A53D0130A536A40CA30CA20C890BFF
:101230001329FF302505031D1E291F2906292929E9
:101240000130A1020130A235A30DA40DA50D890B1B
:101250002329A41B2C292D2933290230210203180C
:101260003229332920292118362937293F29FF30EF
:10127000A205FF30A3057F30A405FF30A5050310AC
:10128000A10C2108F500F601F701F8011830F53539
:10129000F60DF70DF80D890B47297508A20476089D
:1012A000A3047708A4047808A50420080319592981
:1012B0005A295F29F41F5D295E295F29A517250892
:1012C000F4002408F3002308F2002208F1000800CB
:1012D00000304001C3000030C2000030C1000030C7
:1012E000C0000030C7000030C6000030C50000302C
:1012F000C4000030A7000030A6000030A500003078
:10130000A4000730A3007330A2005930A100403080
:10131000A0003008B4003108B5003208B600330828
:10132000B700B801B901BA01BB01B435B50DB60DAE
:10133000B70DB80DB90DBA0DBB0D14304001B43561
:10134000B50DB60DB70DB80DB90DBA0DBB0D890BA6
:101350009E2940013B08AF003A08AE003908AD00B5
:101360003808AC003708AB003608AA003508A900D9
:101370003408A8008B31E123893140012308CB00D8
:101380002208CA002108C9002008C800FF3048050B
:10139000B40000304905B50000304A05B600003001
:1013A0004B05B70001303407BC000030353DBD00AF
:1013B0000030363DBE000030373DBF004808B40065
:1013C0004908B5004A08B6004B08B7000830B736E0
:1013D000B60CB50CB40C890BE729FF303405C000FE
:1013E00000303505C10000303605C2000030370539
:1013F000C3004808B4004908B5004A08B6004B08C5
:10140000B7001030B736B60CB50CB40C890B022AF5
:10141000FF303405C40000303505C5000030360506
:10142000C60000303705C7003C084B018F00400163
:1014300040084B019000400144084B019100080016
:1014400018307E019F004001931312167E0138125E
:1014500040019417141214177E014E135101951771
:101460001508F839063895004B0192171308F03922
:10147000063893008B170B174E019E140030400165
:10148000B3000030B2001330B1008830B0008931B1
:1014900068218A3195318F258A318731F3278A3146
:1014A00041012E080319552A562A502A343040018A
:1014B000A9000630A8003730A700BD30A6004901BA
:1014C0000F08F1001008F2001108F300F4010130D8
:1014D0008831BB208A3174084001AD007308AC002C
:1014E0007208AB007108AA00803131208A314001B6
:1014F0002908C3002808C2002708C1002608C00028
:101500004430C7007A30C6000030C5000030C40047
:101510008E314C268A31400143084101D2004001FE
:1015200042084101D100400141084101D000400181
:1015300040084101CF0052084001E8004101510834
:101540004001E700410150084001E60041014F0819
:101550004001E5009531FA258A31400168084101D2
:10156000D600400167084101D500400166084101ED
:10157000D400400165084101D3005608F400550825
:10158000F3005408F2005308F1000030F800003076
:10159000F7000030F6003230F500963167268A31C8
:1015A00074084001B3007308B2007208B1007108FA
:1015B000B000893168218A3104304001E60098305A
:1015C000E700410156084001EB0041015508400188
:1015D000EA00410154084001E9004101530840017B
:1015E000E80095317D258A31502A80312028F30189
:1015F0002830860000308700473FF100F11F012BA3
:10160000022B232B4001A809A909AA09AB09AC099F
:10161000AD09AE09AF09A80A031D212BA90A031DB4
:10162000212BAA0A031D212BAB0A031D212BAC0A77
:10163000031D212BAD0A031D212BAE0A031D212BF7
:10164000AF0AF301F30A2030860000308700473FDD
:10165000F100F11F2C2B2D2B4C2B4001A009A109CF
:10166000A209A309A409A509A609A709A00A031D9F
:101670004C2BA10A031D4C2BA20A031D4C2BA30AC1
:10168000031D4C2BA40A031D4C2BA50A031D4C2B38
:10169000A60A031D4C2BA70A40012008210422049E
:1016A000230424042504260427040319582B592B4A
:1016B000AC2BF201F20A682BA035A10DA20DA30DEF
:1016C000A40DA50DA60DA70D0130F1007108F207BC
:1016D000A71F6B2B6C2B5C2B27082F02031D8A2B5B
:1016E00026082E02031D8A2B25082D02031D8A2B96
:1016F00024082C02031D8A2B23082B02031D8A2B8E
:1017000022082A02031D8A2B21082902031D8A2B85
:1017100020082802031C8D2B8E2B9E2B2008A8024C
:101720002108A93B2208AA3B2308AB3B2408AC3B79
:101730002508AD3B2608AE3B2708AF3BA736A60CD5
:10174000A50CA40CA30CA20CA10CA00C0130F2025D
:10175000031DAB2BAC2B6C2B73080319B02BB12BD7
:10176000CF2BA809A909AA09AB09AC09AD09AE0993
:10177000AF09A80A031DCF2BA90A031DCF2BAA0A64
:10178000031DCF2BAB0A031DCF2BAC0A031DCF2BA0
:10179000AD0A031DCF2BAE0A031DCF2BAF0A4001AC
:1017A0002808A0002908A1002A08A2002B08A300ED
:1017B0002C08A4002D08A5002E08A6002F08A700BD
:1017C0000800F3012030860000308700473FF10019
:1017D000F11FEB2BEC2B0D2C4001A009A109A20954
:1017E000A309A409A509A609A709A00A031D0B2C92
:1017F000A10A031D0B2CA20A031D0B2CA30A031D17
:101800000B2CA40A031D0B2CA50A031D0B2CA60AE6
:10181000031D0B2CA70AF301F30A283086000030C1
:101820008700473FF100F11F162C172C3A2C40017E
:10183000A809A909AA09AB09AC09AD09AE09AF0904
:10184000A80A031D362CA90A031D362CAA0A031D5B
:10185000362CAB0A031D362CAC0A031D362CAD0A00
:10186000031D362CAE0A031D362CAF0A0130F100E1
:101870007108F30674308600003087000830F100EC
:1018800000301E00F10B412C4001200821042204ED
:10189000230424042504260427040319502C512C66
:1018A000AD2CF201F20A602CA035A10DA20DA30D02
:1018B000A40DA50DA60DA70D0130F1007108F207CA
:1018C000A71F632C642C542CF435F50DF60DF70D81
:1018D000F80DF90DFA0DFB0D27082F02031D8A2CB8
:1018E00026082E02031D8A2C25082D02031D8A2C92
:1018F00024082C02031D8A2C23082B02031D8A2C8A
:1019000022082A02031D8A2C21082902031D8A2C81
:1019100020082802031C8D2C8E2C9F2C2008A80246
:101920002108A93B2208AA3B2308AB3B2408AC3B77
:101930002508AD3B2608AE3B2708AF3B7414A736FD
:10194000A60CA50CA40CA30CA20CA10CA00C01309D
:10195000F202031DAC2CAD2C642C73080319B12CBE
:10196000B22CD02CF409F509F609F709F809F909A0
:10197000FA09FB09F40A031DD02CF50A031DD02C2B
:10198000F60A031DD02CF70A031DD02CF80A031DFC
:10199000D02CF90A031DD02CFA0A031DD02CFB0A07
:1019A00074084001A0007508A1007608A20077081D
:1019B000A3007808A4007908A5007A08A6007B088F
:1019C000A70008004001BF003008C4003108C5006E
:1019D0003208C6003308C7003408C8003508C900FB
:1019E0003608CA003708CB00443086000030870034
:1019F000473FB800B81BFD2CFF2C0130002D0030F4
:101A00004001B900BA013908C2003A08C3004208CF
:101A1000430403190C2D0D2D2B2DC409C509C6092E
:101A2000C709C809C909CA09CB09C40A031D2B2D56
:101A3000C50A031D2B2DC60A031D2B2DC70A031D26
:101A40002B2DC80A031D2B2DC90A031D2B2DCA0AD5
:101A5000031D2B2DCB0A4101AD1B2F2D302D352D14
:101A6000FD304001ED05FF30EE0541012D08803AC3
:101A70004001B80080303802031D412D0130410182
:101A80002C020318442D452D4B2D01304001BD0083
:101A90000030BE00532D41012D084001BE00410120
:101AA0002C084001BD0041012B084001C10041014B
:101AB0002A084001C00042084304031D602D612D27
:101AC000652D6D1D642D652D692DFF30C007FF301C
:101AD000C13D1F30CC000030CD004101CE01D82DDA
:101AE000FF304001CC07FF30CD3D0A30A000A101FE
:101AF000A201A301A401A501A601A7014408A80011
:101B00004508A9004608AA004708AB004808AC00F1
:101B10004908AD004A08AE004B08AF008A31F722F1
:101B20008C3140012108F5002008F4009531C025D2
:101B30008C317408303E4001B8004C08AF3E86003E
:101B4000870138088100FF30BD07FF30BE3DFF3000
:101B5000C007FF30C13D0A30A000A101A201A301CE
:101B6000A401A501A601A7014408A8004508A900F1
:101B70004608AA004708AB004808AC004908AD0079
:101B80004A08AE004B08AF008B31E1238C31400195
:101B90002008C4002108C5002208C6002308C70089
:101BA0002408C8002508C9002608CA002708CB0059
:101BB00040014D08803AB80080303802031DE22D04
:101BC00001304C02031CE52DE62D132E4001440884
:101BD000450446044704480449044A044B04031DD1
:101BE000F22DF32D702D3E08803AB8008030380277
:101BF000031DFC2D01303D020318FF2D002E702D1A
:101C000040014108803AB80080303802031D0A2E96
:101C100001304002031C0D2E0E2E132E4001ED1834
:101C2000122E132E702D400142084304031D192E5D
:101C30001A2E1E2E6D1D1D2E1E2E392EFF30CC0786
:101C4000FF30CD3D42084304031D272E282E2D2EA4
:101C50002B30BB000030BC00312E2D30BB000030DB
:101C6000BC003B08B8004C08AF3E8600870138082E
:101C700081004C08AF3EB8003808A7004108A90011
:101C80004008A8003F089631D9268C314001280829
:101C9000B1002708B0000800400147088039C8009B
:101CA0004808D1004735C8004808D800C61F592E3B
:101CB0005A2E5B2E5814580803195F2E602E702E72
:101CC000580A031D642E652E6D2E0030C7000030AB
:101CD000C6000030C5000030C400C617C701782E0A
:101CE0000030C7000030C6000030C5000030C4001E
:101CF00043088039C8004808D1064335C800480861
:101D0000D900C21F842E852E862E59145908031916
:101D10008A2E8B2E9B2E590A031D8F2E902E982EC5
:101D20000030C3000030C2000030C1000030C000ED
:101D3000C217C301A32E0030C3000030C200003020
:101D4000C1000030C0004308420441044004031DA8
:101D5000AA2EAB2EC42E0030C7000030C6000030C3
:101D6000C5000030C4008030C6047F30C70451086D
:101D7000C8004808C7044708C3004608C200450811
:101D8000C1004408C000FF2F5808031DC82EC92EEB
:101D9000D22E0030C3000030C2000030C10000303D
:101DA000C000FF2F5808C800C9014908CB005908D6
:101DB0004802CA00031CCB034A087F3ED200003011
:101DC0004B3DD3004708D0004608CF004508CE0061
:101DD0004408CD000030C7000030C6000030C50008
:101DE0000030C4000030D7000030D6000030D500ED
:101DF0000030D400D9013A2F59080319002F012FC0
:101E00001B2F0130CD35CE0DCF0DD00D890B022FFC
:101E10000130C435C50DC60DC70D890B092FD71F5D
:101E2000122F132F142F44140130D435D50DD60D95
:101E3000D70D890B152F43085002031D292F420887
:101E40004F02031D292F41084E02031D292F400870
:101E50004D02031C2C2F2D2F362F57174008CD0273
:101E60004108CE3B4208CF3B4308D03B0130C8007D
:101E70004808D9071A305902031C3F2F402FFC2E67
:101E800050084F044E044D040319472F482F612F6B
:101E90005414612F0130C435C50DC60DC70D890B13
:101EA0004B2FD71F542F552F562F44140130D435A4
:101EB000D50DD60DD70D890B572FFF30D207FF3028
:101EC000D33DC61F642F652F4A2FD901D71F692F15
:101ED0006A2F862FFF305405C800FF305505C90012
:101EE000FF305605CA007F305705CB004B084A0427
:101EF0004904480403197D2F7E2F812FD901D90A67
:101F0000862F441C842F852F862F7E2F5908031976
:101F10008A2F8B2FB32F0130C4070030C53D00300E
:101F2000C63D0030C73D471C962F972FB32F44085E
:101F3000C8004508C9004608CA004708CB00013060
:101F4000CC00CB37CA0CC90CC80CCC0BA12F4B084A
:101F5000C7004A08C6004908C5004808C400013047
:101F6000D2070030D33D5308803AC8008030480281
:101F7000031DBC2FFF305202031CBF2FC02FCD2FDB
:101F8000FF304001D2000030D3000030C7000030E5
:101F9000C6000030C5000030C40040015308803A3C
:101FA000C80080304802031DD72F013052020318A9
:101FB000DA2FDB2FE72F4001D201D3010030C70019
:101FC0000030C6000030C5000030C400D10140011F
:101FD0005208C8004808D800581CEF2FF02FF22FE5
:101FE000C617F62F7F30C8004808C6055836C80007
:101FF0004808C7005108C8004808C704BB2E08009D
:102AC600640080010131890B642D0034F100710826
:102AD60042019A009E1C702D712D6D2D0800740800
:102AE6007304720471040319792D7A2D7C2D8030BC
:102AF600F40608006830FC007C084001EC0067081A
:102B0600DF006608DE006C30FC007C08E000003068
:102B1600883100209531080049011B08F839013831
:102B26009B0098171908F039023899001917FC30DC
:102B36009805FF309500FF309600FF3097009917F3
:102B460016307D01AA000800F5007508F300730829
:102B5600F400B12D0130F3007308F50775088600FF
:102B660087010108031DB82DB92DAD2D7408750216
:102B7600F100F201F11BF20308007508803AF60035
:102B860080307602031DC92D013074020318CC2D46
:102B9600CD2DD92D7409F6007509F700F60A03192B
:102BA600F70A7608F4007708F500D92D080080307A
:102BB6004001AB062F08F4002E08F3002D08F200A2
:102BC6002C08F1002B08F8002A08F7002908F6005F
:102BD6002808F50082318822953174084001AB003F
:102BE6007308AA007208A9007108A800080040012D
:102BF6006808C3006708C2006608C1006508C0000F
:102C06008431C724953140014308DD004208DC00C9
:102C16004108DB004008DA0097318B2795314001E7
:102C26005D08E8005C08E7005B08E6005A08E50076
:102C36000800F900F501F6017108F300F4017308C4
:102C4600F7007408F800791C292E2A2E2E2E7708F4
:102C5600F5077808F63D0130F735F80D890B2F2E6C
:102C66000310F90C7908031D392E3A2E262E760804
:102C7600F2007508F10008004001A600A401A501B4
:102C8600572E2308A000A1012008F2002108F30016
:102C96007A08A2002208F40096319A26963101306D
:102CA6004001A4070030A53D24082607A0002008FF
:102CB600860087010108A1002108A3002308031D3F
:102CC600652E662E442E08000030FC000030FB0006
:102CD6000030FA000030F900711C722E732E7B2E24
:102CE6007508F9077608FA3D7708FB3D7808FC3D3C
:102CF6000130F535F60DF70DF80D890B7C2E0130F8
:102D0600F436F30CF20CF10C890B832E7408730461
:102D160072047104031D902E912E6F2E7C08F40010
:102D26007B08F3007A08F2007908F10008007408BD
:102D360003199E2E9F2EA42E7408031DA32EA42EC7
:102D4600A92E7208953169259631D82E7408033E4E
:102D560086008701160001040319B22EB32ED02E69
:102D66007408033E86008701403FF500413FF600A8
:102D7600740A86008701403FF700413FF800780853
:102D8600803AF9007608803A7902031DCC2E750840
:102D960077020318CF2ED02ED82E740A860087010C
:102DA6000130810741310318810A08004001AE0055
:102DB6006D1CDE2EDF2EE72E2E08FB007B08FA00A8
:102DC600270896313F2696314001A91BEB2EEC2EA3
:102DD600F12E2908AD002808AC00F32EAC01AD0198
:102DE600AA01AB01072F2030F2000030F3004001AA
:102DF6002E08FB007B08F40096319A2696310130A6
:102E06004001AA070030AB3D2B08803AFB002D0895
:102E1600803A7B02031D112F2C082A02031C142F53
:102E2600152FF62E40016D18192F1A2F222F2E0856
:102E3600FB007B08FA00270896313F2696314001B1
:102E460027089531A725963140012C087107A70060
:102E56002D08723DA80008007208F9007108F800F4
:102E66007408FB007308FA000130F5020030F63BE7
:102E7600750A031D422F760A031D422F432F522F38
:102E8600F101F2018A2F0130F8070030F93D0130D7
:102E9600FA070030FB3D0130F5020030F63B7808BA
:102EA600840079088500120003195A2F5B2F7A2FA8
:102EB6007A0884007B08850012000319632F642FAB
:102EC6007A2F750876040319692F6A2F7A2F7A08E4
:102ED60084007B0885000008F700780884007908DC
:102EE6008500000877060319792F7A2F462F780870
:102EF6008400790885000008F7007A0884007B08BA
:102F0600850000087702F100F201031CF2030800B5
:102F1600031040015C0D5D0DDE005E08E4006408F0
:102F2600031D962F972FA02F0030DD000030DC0008
:102F36000030DB000030DA00FF2F5A08DE005B08A5
:102F4600DF005C08E0005D08E1001F30E136E00CC0
:102F5600DF0CDE0C890BA92F5E08E2006208E30095
:102F6600DC17FF30DA05FF30DB05FF30DC0500300B
:102F7600DD059630E402E41FC12FC22FDA2F640864
:102F8600803A973E0318C82FC92FCA2F972F0130B2
:102F9600DD36DC0CDB0CDA0C890BCB2F0130DE00C6
:102FA6005E08E407031DD82FD92FCA2FEF2F203034
:102FB6006402031CDF2FE02FEA2F972F0130DA354A
:102FC600DB0DDC0DDD0D890BE22F0130E402640818
:102FD600031DEE2FEF2FE12F63080319F32FF42FB4
:102FE600FF2FDA09DB09DC09DD09DA0A0319DB0A36
:102FF6000319DC0A0319DD0A080000340034003422
:103006004B3425346C3464340A3400346C34643400
:0830160000346C34693400340D
:020000040001F9
:08000000FF3FFF3FFF3FFF3F00
:0A000E00FA3FFF379F3FFF3FFF3F1F
:00000001FF
